:020000040800F2
:1000000000800120A11D0008D51D0008D51D000895
:10001000D51D0008D51D0008D51D000800000000F2
:10002000000000000000000000000000D51D0008D6
:10003000D51D000800000000D51D0008D51D0008D2
:10004000D51D0008D51D0008D51D0008D51D0008C8
:10005000D51D0008D51D0008D51D0008D51D0008B8
:10006000D51D0008D51D0008D51D0008D51D0008A8
:10007000D51D0008D51D0008D51D0008D51D000898
:10008000D51D0008D51D0008D51D00080000000082
:10009000000000000000000000000000D51D000866
:1000A000D51D0008D51D0008D51D0008D51D000868
:1000B000D51D0008D51D0008D51D0008D51D000858
:1000C000D51D0008D51D0008D51D0008D51D000848
:1000D000D51D0008D51D0008D51D00080000000032
:1000E000D51D0008D51D0008D51D00080000000022
:1000F000000000000000000000000000D51D000806
:1001000000000000D51D0008D51D0008D51D000801
:1001100000000000000000000000000000000000DF
:10012000D51D0008D51D0008D51D0008D51D0008E7
:10013000D51D0008000000000000000000000000C5
:10014000000000000000000000000000D51D0008B5
:10015000D51D0008D51D0008D51D0008D51D0008B7
:10016000D51D0008D51D000800000000000000009B
:10017000000000000000000000000000000000007F
:1001800000000000D51D0008000000000000000075
:10019000D51D000810B5054C237833B9044B13B1B5
:1001A0000448AFF300800123237010BD680B0020CA
:1001B00000000000A4A9000808B5034B1BB10349C7
:1001C0000348AFF3008008BD000000006C0B002066
:1001D000A4A90008154B002B08BF134B9D46A3F59F
:1001E000803A00218B460F461348144A121A04F035
:1001F00071FD0F4B002B00D098470E4B002B00D009
:1002000098470020002104000D000D48002802D06E
:100210000C4804F049FF04F035FC2000290001F0EF
:1002200035FC04F0A5FA00BF0000080000800120A2
:10023000000000007F1A0008680B002068130020EF
:10024000A9500008A951000870B5042001F066FC0F
:10025000054600F0C5F9102001F060FC044600F0EE
:1002600025F82946204600F013F82368074E5B68FE
:10027000204698472B6828461B69984723682046E4
:100280009B689847304603F0D5FFF3E7CDCCCC3DD3
:10029000C1607047014B00221A607047840B002038
:1002A000014B00221A607047840B0020054B03F1BC
:1002B0000801016003F11C012833836000234160C1
:1002C000C3607047789C0008C06803681B681847C3
:1002D000C06803689B6818471049114A0B68126888
:1002E000934210B4044616DC5A1C502A0A6004DCFF
:1002F00020465DF8044BFFF7E7BFA3F15001122938
:1003000009D9642A04D107495DF8044BFFF7E0BF1F
:10031000773B142BECD95DF8044B7047840B00201D
:100320009C01002021430500A0F10800FFF7D4BF85
:10033000436C013343647047014B00225A64704799
:10034000480C0020014B00225A647047000C00202A
:10035000014B586C704700BF480C0020014B586C93
:10036000704700BF000C0020034610B107C983E8A6
:1003700007007047704710B44468816862100346F4
:10038000E40701EB02001B6848BF8A585DF8044B84
:1003900048BFD3581847000038B5B0F900300133D2
:1003A00004460D4604D134220549064803F0CAFE2E
:1003B0006368E2680DB1136038BD1B04FBE700BF42
:1003C000E49C0008299D000808B50B4800F024FAB9
:1003D00007A3D3E9002308F007FA084BD3E9002369
:1003E00008F04AF803F03AFF08F0AEFC08BD00BF81
:1003F000F8C1631ADCA54C40880B0020B00C00202B
:1004000010B50F4C204600F0BEF94FF07E5003F0BF
:1004100011FF204600F000FA07A3D3E9002308F0FB
:10042000E3F9084BBDE81040C3E900014FF07E50EE
:1004300003F000BFAFF30080F8C1631ADCA54C40A5
:10044000880B0020B00C002038B504460D4603F0A0
:1004500093FE2946204601F07BFABDE8384003F0C0
:10046000B5BE000008B500210848FFF795FF01213F
:100470000748FFF791FF4FF4C8710648FFF7E4FF04
:100480004FF4C8710448FFF7DFFF08BDA00C00203F
:10049000900C0020D00C0020B80C002008B50121E1
:1004A0000848FFF779FF00210748FFF775FF4FF471
:1004B000C8710648FFF7C8FF4FF4C8710448FFF73A
:1004C000C3FF08BDA00C0020900C0020D00C002021
:1004D000B80C002008B5124B994211D100211148E7
:1004E000FFF75AFF00211048FFF756FF4FF4C8717D
:1004F0000E48FFF7A9FFC8210D48FFF7A5FF08BD6B
:1005000001210848FFF748FF01210748FFF744FF92
:10051000C8210648FFF798FF4FF4C871ECE700BF09
:1005200045230100A00C0020900C0020D00C0020DE
:10053000B80C002010B509480C460021FFF72CFF2D
:1005400001210748FFF728FF21460648FFF77CFFF7
:1005500021460548FFF778FF10BD00BFA00C002022
:10056000900C0020D00C0020B80C002008B5002111
:100570000748FFF711FF01210648FFF70DFF002193
:100580000548FFF761FF00210448FFF75DFF08BD44
:10059000A00C0020900C0020D00C0020B80C0020F3
:1005A0001FB5044603F072FC03F0E6FD0A4B00930E
:1005B0000023CDE901346946084B0393204603F03C
:1005C0009DFC039B13B19B686846984703F0FEFDB2
:1005D000204604B010BD00BF31030008A49C0008F1
:1005E00070B5144B144E0360144D044603F0C4FD63
:1005F00030464FF47A7101F04BF803F0E7FD03F059
:10060000BBFD28464FF47A7101F042F803F0DEFD9D
:1006100030460021FFF718FF28460021FFF714FF9E
:1006200000210748FFF7B8FE00210648FFF7B4FE97
:10063000204670BDB89C0008D00C0020B80C0020EB
:10064000A00C0020900C002070B503F095FD272130
:100650002148224D224E01F0B3F803F0B7FD214BA3
:10066000102422461846002104F034FB082103F030
:10067000D3FC03F081FD16211B4801F0A1F803F023
:10068000A5FD1A4B22461846002104F023FB092140
:1006900003F0C2FC164C18221921284600F082F8FB
:1006A0002846144D1449224601F02CFA1E212846F2
:1006B000FFF776FF2846114D2246314601F022FA17
:1006C0001D212846FFF76CFF224631462846BDE82B
:1006D000704001F017BA00BFD00C0020880B00203A
:1006E00001070008A00C0020B80C0020900C00208E
:1006F00098010020480C00200D070008000C002085
:1007000010B5044603F094FB204610BD10B5034617
:10071000044653F8040B984202D163689B689847DB
:10072000204610BD1FB5002300938DF80C308DF8C6
:100730000D10022303AA3D21006803F0F9FA05B069
:100740005DF804FB1FB501238DF80C3000230093E6
:100750008DF80D10022303AA3D21006803F0E8FA8A
:1007600005B05DF804FB1FB50022009202238DF84E
:100770000D1003AA3D2100688DF80C3003F0D8FA63
:1007800005B05DF804FB10B5D0210446FFF7CAFFA1
:1007900020462021FFF7D6FF20460021BDE810406B
:1007A000FFF7E1BF10B504460430206008B103F044
:1007B00067FA2046FFF7E7FF204610BD30B587B047
:1007C00006AA032302F80C3D012300930C460546BC
:1007D0003D21006803F0ACFA0023009304AA06232D
:1007E0003D21286803F0C5FA9DF810209DF81130CE
:1007F00043EA022323809DF812209DF8133043EA38
:10080000022363809DF814209DF8153043EA0223EB
:10081000A38007B030BD000037B56946FFF7CEFFB3
:10082000BDF9000007F076FF04460D46BDF9020051
:1008300007F070FF22462B4603F014FD0022002330
:1008400004460D4608F042FA40B1204629460EA360
:10085000D3E9002307F012FE04460D460AA3D3E9AC
:1008600000232046294608F04FFA40B12046294689
:1008700005A3D3E9002307F0FFFD04460D462046FB
:10088000294603B030BD00BF182D4454FB21194048
:1008900010B50C4CA268A468B4F1006F13460CD1DB
:1008A000131F094A53F8044F42F8044F074CA24261
:1008B000F8D1044A4FF000539360103043F82010F1
:1008C00010BD00BF00ED00E0FCFFFF1F9001002005
:1008D000431C10B5044604D106480749272203F0FB
:1008E00031FC2046002100F0F5FD04F00F0401204A
:1008F000A04010BD2E9D0008C09F000870B50446A2
:100900004B1C0E4621800DD0C1F3031000F072FD88
:1009100005463046FFF7DCFF05F11003183560602F
:10092000A360E56070BDB0F9000000F001BE0000FA
:1009300038B5B0F90030013305460C4604D10748FC
:100940000749462203F0FEFB012CB5F900000CBF5D
:1009500021460021BDE8384000F0BCBD299D0008BB
:10096000C09F00082DE9F041154E4C2404FB0064A3
:10097000074688460434002545451ED04C237B435A
:100980000121F35801FA05F21A4213D00D4A236BE4
:100990005069D4F818E001FA03F303420AD0536116
:1009A000206838B1DEF810201342074B08BF02213F
:1009B0001B68984701350434DEE7BDE8F08100BFCD
:1009C000E80C0020003C0140FC0E0020002001212A
:1009D000FFF7C8BF01200146FFF7C4BF0220012175
:1009E000FFF7C0BF03200121FFF7BCBF0420012196
:1009F000FFF7B8BF05200146FFF7B4BF0620014648
:100A0000FFF7B0BF2DE9F74F9B464B1C81460D46C3
:100A1000019266D001F00F0808F1FF33C1F3031013
:100A20000E2B09D8DFE803F00C1014181C1C1C1C3A
:100A30001C202020202020002C4F0024062616E019
:100A40002B4F0124072612E02A4F022408260EE02D
:100A5000294F032409260AE0284F04240A2606E029
:100A6000274F0524172602E0264F0624282600F0EB
:100A7000C1FC4FFA86FA00900721284600F02AFDB3
:100A800050463946FFF704FF06F01F01012202FA23
:100A900001F04FEA5A131C4941F823001B4B89F817
:100AA000006053F828601A49A9F80C504C2363439E
:100AB00002FA06F5CA58C9F804402A430020C9F8CA
:100AC0000800CA50132303FB046401EB8403009A5B
:100AD000DA61C3F804B0C3F834800E4B019A1A608F
:100AE00000E0084603B0BDE8F08F00BFCD09000864
:100AF000D5090008DD090008E5090008ED0900082E
:100B0000F5090008FD09000800E100E018A0000850
:100B1000E80C0020FC0E0020F8B54468174A054692
:100B2000808900F00F03C0F3031000F58010012648
:100B3000803006FA03F1800252F8237001F07CFA4B
:100B40004C210F4AB5F90C006143BE40535823EACB
:100B50000606132303FB0473565002EB83010024A3
:100B60004C60991D0C3302EB810102EB83034C6056
:100B70005C60214600F000FDAC60F8BD18A00008E4
:100B8000E80C0020A2B1012905D18368023B012BAA
:100B900008D981601EE0022921D1836823F0020375
:100BA000012B03D103238360082119E0816007E052
:100BB000012907D18368023B012B0DD802238360F2
:100BC00007210DE002290AD1836823F00203012BDB
:100BD00002D18360062103E08260114600E00C210F
:100BE000B0F90C0000F0C8BC38B5144B1A68116994
:100BF00011F0020F1C4607D0D368980704D56FF098
:100C00000203136103F074FA23681A69510714D5BB
:100C1000DA68520711D56FF00402094D1A615C6A57
:100C20002B68E31AB3F57A7F07D301F0EFF8034B93
:100C30001B6804F57A729A632C6038BD0413002097
:100C4000000F002030B589B003A801A902F062FBB3
:100C500002F030FB00230293234B01901A6C234CCB
:100C600042F008021A641A6C02F008020292029A18
:100C70001A6A42F008021A621A6A22F008021A621C
:100C8000069AA3F50B3323604FF0FF33E360184B54
:100C900002B14000B0FBF3F001380025606013485A
:100CA0002561A560656102F017FC32201149FFF74C
:100CB000EFFD114B0D484FF480225A60294602F097
:100CC000DBFC0421094802F0D7FC23680B4A596A6F
:100CD0001160126802F57A729A63DA68284642F067
:100CE0000402DA6009B030BD00380240041300206D
:100CF00040420F00E90B000800E100E0000F002077
:100D000010B5054B9C68204601F01AFC2046BDE852
:100D1000104001F03DBF00BF040F002010B5054B8F
:100D20005C68204601F00CFC2046BDE8104001F054
:100D30002FBF00BF040F002010B5054B1C682046D4
:100D400001F0FEFB2046BDE8104001F021BF00BFCE
:100D5000040F00202DE9F84390F8647090F8656066
:100D60007DB274B2804689462846FFF791FD494618
:100D70002046FFF78DFD98F86830002B0CBF02234A
:100D80000123002DA8BF05F160424FEA0313AFBF56
:100D900002F56142144A07F00F00D9B2AABFD9B2D6
:100DA000115482F80013002CADBF04F1604206F02C
:100DB0000F010D4A02F56142B5BFDBB2DBB25354FD
:100DC00082F800336D090123084A07F01F07640900
:100DD00006F01F0603FA07F1B34042F8251042F867
:100DE0002430BDE8F88300BF14ED00E000E100E02E
:100DF00010B590F8654090F9640001F027F860B2F2
:100E0000BDE8104001F022B890F85830012B00F1F5
:100E1000040107D004D3022B054818BF002002E0CC
:100E2000044800E00448054A42F82310704700BF18
:100E3000010D0008390D00081D0D0008040F0020E9
:100E4000194A03681268C16DB2FBF1F114224360C4
:100E50004A439969890701D5013AFAD1134A934265
:100E600008D1134B1A6A42F400121A621A6A22F469
:100E7000001216E00F4A934208D10D4B1A6A42F451
:100E800080021A621A6A22F480020AE00A4A934235
:100E900008D1074B1A6A42F400021A621A6A22F455
:100EA00000021A62704700BFA401002000540040F5
:100EB0000038024000580040005C0040F8B5124B7A
:100EC000C26D1B68B3FBF2F214235343426804461D
:100ED0000E46071D9169890701D5013BFAD100250E
:100EE0002946A660E560384601F065FF4FF480436F
:100EF0006361A561256265622561E561384601F09F
:100F000041F9E665F8BD00BFA4010020F0B5044634
:100F100085B00E4608465649154603F0BDF85549BA
:100F20000746284603F0B8F8A4F860600146A4F824
:100F30006250384603F092F82060013004D14E48E8
:100F40004E49FC2203F0FEF822684D4B9A4223D111
:100F50000023019384F858304A4B45491A6C42F4F7
:100F600000121A641B6C03F4001301933046019BBA
:100F700003F056F828463F4903F052F83046012165
:100F800000F0D6FA2846012100F0D2FA1F2384F897
:100F90006430202384F8653022683B4B9A4224D188
:100FA000002302930127374B84F858701A6C30499C
:100FB00042F480021A641B6C03F4800302933046EF
:100FC000029B03F02DF828462A4903F029F8304601
:100FD000394600F0ADFA2846394600F0A9FA212337
:100FE00084F86430222384F865302268274B9A42C3
:100FF00024D1022384F8583000230393214B1C4949
:101000001A6C42F400021A641B6C03F4000303938D
:101010003046039B03F004F82846164903F000F815
:101020003046012100F084FA2846012100F080FAC0
:10103000482384F86430492384F86530E36D0BB9A4
:10104000134BE3652046FFF7FBFE2046E16DFFF7FB
:1010500035FF002384F8693084F8683084F86A30FA
:1010600084F86730042384F8663005B0F0BD00BF13
:10107000449D00083C9F000858A0000872A000088A
:10108000005400400038024000580040005C00401E
:10109000A08601002DE9F34116460446089A00F1A6
:1010A00004081D468FB203B15EB94046394601229D
:1010B0000A2301F0ABF900280CBF00206FF00100FB
:1010C0004EE090F86630042B01D0082B04D10AB111
:1010D000042308E0012306E0013B012B05D80AB1F7
:1010E000082300E0022384F86630002384F8673088
:1010F0002046FFF789FE01462046FFF72BFE94F8B5
:1011000066300093404639463246ABB201F004F9EE
:1011100010BB154BE66D1B68B3FBF6F61E235E4352
:1011200005FB066694F8673013F01E0F05D1013EEB
:1011300003D0012003F073F8F4E72046FFF758FED0
:101140001EB194F86730082B09D02046B4F960101E
:10115000B4F96220FFF7DAFE6FF0010000E02846E4
:1011600002B0BDE8F08100BFA40100202DE9F341E9
:1011700016460446089A00F104081D468FB203B1D2
:101180005EB94046394601220A2301F03FF90028A2
:101190000CBF00206FF001004EE090F86630042B89
:1011A00001D0082B04D10AB1042308E0012306E092
:1011B000013B012B05D80AB1082300E0022384F883
:1011C0006630002384F867302046FFF71DFE014695
:1011D0002046FFF7BFFD94F866300093404639463D
:1011E0003246ABB201F03CF810BB154BE66D1B6804
:1011F000B3FBF6F61E235E4305FB066694F86730E4
:1012000013F01E0F05D1013E03D0012003F007F8B3
:10121000F4E72046FFF7ECFD1EB194F86730082B89
:1012200009D02046B4F96010B4F96220FFF76EFED1
:101230006FF0010000E0284602B0BDE8F08100BF79
:10124000A4010020436F07B5ABB1D0F8843093B14F
:1012500090F86C200AB1082200E0022280F8622097
:1012600090F86220B0F868100092D0F880209BB20D
:1012700001F052F802E0082380F8633003B05DF813
:1012800004FB082380F86330704738B5051D044619
:101290000261284600F076FF2046FFF7B5FD0146C3
:1012A0002046FFF757FD2846BDE8384001F098B8C2
:1012B00070B590F864500446061F05B1C568B4F9CE
:1012C0005C10B4F95E203046FFF720FE00210B468B
:1012D00030462A46FFF7D9FF022384F8633070BDF9
:1012E00019B9012380F865307047012908BF80F8DB
:1012F00066107047002380F865307047002380F83F
:101300006630704701F06CB810B5044650F80429F7
:10131000536823F4E0635360FFF76AFD022384F807
:10132000633010BD1FB502F027FF6846052102F0AB
:1013300073FEBDF90030013304D10E480E4934224A
:1013400002F000FF039B019A1A60962002F080FFD2
:10135000BDF90030013304D106480749342202F0B8
:10136000F1FE019B039A1B041360962002F070FFAC
:10137000DFE700BF299D0008B9A0000830B5054689
:10138000A1B00C4602F0F8FE29466846224603F05A
:10139000EBFD051E03DC02F019FF21B030BD094B47
:1013A0001B6823B908480221032200F013FC002423
:1013B0001DF804100448013400F0E0FCAC42F7D101
:1013C000E9E700BF5C120020B41200200FB407B59B
:1013D00004A951F8040B0191FFF7D0FF03B05DF8A9
:1013E00004EB04B0704708B502F0DCFABDE8084031
:1013F00000F0F2BC7FB50023072853D8DFE800F0E7
:1014000004111E2B3852524500932A4B2A481A6B5E
:1014100042F001021A631B6B03F001030093009B6F
:1014200044E00193234B25481A6B42F002021A63F1
:101430001B6B03F002030193019B37E002931D4BEA
:101440001F481A6B42F004021A631B6B03F004037B
:101450000293029B2AE00393164B1A481A6B42F040
:1014600008021A631B6B03F008030393039B1DE040
:101470000493104B14481A6B42F010021A631B6B52
:1014800003F010030493049B10E00593094B0F48ED
:101490001A6B42F080021A631B6B03F08003059302
:1014A000059B03E00A4802F0AFFE002007B05DF89C
:1014B00004FB00BF0038024000000240000402406C
:1014C00000080240000C024000100240001C0240D4
:1014D0002BA1000830B5431C87B005460C4604D14B
:1014E00010481149812202F02DFEC5F30310FFF7C9
:1014F00081FF05F00F050123AB4004F00F020193BB
:101500000A4B53F822300293C4F302130393C4F33B
:10151000C314032301A90493059400F0BBFC07B096
:1015200030BD00BF2E9D00084CA10008A4A10008FA
:10153000431C70B506460C4604D10D480D49A62241
:1015400002F000FEC6F30310FFF754FF06F00F058C
:10155000C1686B0003229A4021EA0202032CC26098
:10156000C26828BF00249C401443C46070BD00BF03
:101570002E9D00084CA1000838B50546C0F30310A5
:101580000C46FFF737FF05F00F02C3685200D34047
:1015900003F0030304F00F01284641EA0311BDE8FC
:1015A0003840FFF797BF000030B507EE101A284B00
:1015B00002681A60B5EEC07AF1EE10FA89B00546FD
:1015C00009D4F7EE007AB4EE677AF1EE10FAC8BFEC
:1015D000B0EE677A01E09FED1F7AD5ED037AF8EE61
:1015E000677A602267EE877A0192FCEEE77AAA6852
:1015F000C5ED047A17EE903AB3FBF2F302930023A1
:10160000039304930593069307932B7D013B032BD0
:101610001CD8DFE803F008020406042404E00824D0
:1016200002E00C2400E00024094801A9224601F050
:10163000B3FF10B1084802F0E7FD6B7D0448214676
:1016400013B102F051F801E002F02CF809B030BDFE
:10165000180F002000000000D8A10008C368ABB13B
:1016600090ED047A07EE903AB8EE477AF8EE677A92
:10167000C7EE277AB7EE007AF4EEC77AF1EE10FAE9
:10168000D4BF17EE900A17EE100A7047002070477B
:101690002DE9F041D0F80080414C86B005460E4659
:1016A000C4F80080FFF7DAFFD8F8202041F21113C8
:1016B000134007465BB9D8F8202040F2444313405A
:1016C0002BB9D8F8003023F00103C8F8003001A886
:1016D000694601F01FFE2B68324A93421BD00BD89B
:1016E000A2F50062934216D002F58062934212D0B6
:1016F000B3F1804F51D10EE02B4A934210D002D863
:10170000A2F5804204E0294A934209D002F58062A2
:10171000934205D041E001F0CDFD0090049803E034
:1017200001F0E0FD00900598009A2149B6F5803F50
:10173000ACBF4FF4FA730123AB60AB6800B1520049
:10174000B2FBF1F212FB03F39BB2013B63606368EF
:10175000B3F5803F02D3174802F056FDAA68731E06
:10176000B3FBF2F3B3F5803FE36002D3124802F01B
:101770004BFD00230A482361A36001F0C7FE10B1AE
:101780000E4802F041FDEE6028463946FFF70CFF97
:101790002268136843F00103136006B0BDE8F081CE
:1017A000180F0020000C00400040014000440140A0
:1017B00040420F00EFA100080BA20008D8A10008CA
:1017C00070B5044688B008460E46554902F064FCE0
:1017D0002060013004D1534853492D2202F0B2FC5D
:1017E00030464F4902F074FC431C054604D14F4873
:1017F0004D49312202F0A6FCC5F3C4234C4A23759F
:101800002368C5F30045934265754FF000020BD184
:101810000092484A516C41F001015164526C02F04F
:1018200001020092009A3BE0B3F1804F0BD101928C
:10183000404A116C41F001011164126C02F0010286
:101840000192019A2CE03C498B420BD10292394A19
:10185000116C41F002011164126C02F0020202925A
:10186000029A2DE035498B420BD10392314A116C1B
:1018700041F004011164126C02F004020392039A15
:101880002EE02F498B420BD12A4B04921A6C42F066
:1018900008021A641B6C03F008030493049B2EE0F7
:1018A000284A93420CD100230593224B5A6C42F4F0
:1018B00080325A645B6C03F480330593059B1EE011
:1018C000214A93420CD1002306931A4B5A6C42F4DE
:1018D00000325A645B6C03F400330693069B0EE0FF
:1018E0001A4A93420BD100230793124B5A6C42F4CD
:1018F00080225A645B6C03F480230793079B08499A
:10190000304602F08DFB0023E36023610123A680B3
:10191000A360204644F62061FFF7BAFE08B070BD10
:10192000D49D000824A200083CA2000895A200084B
:101930000000014000380240000400400008004060
:10194000000C0040004001400044014000480140BC
:1019500007EE901AB8EEE77AD0ED037AF8EE677AE0
:10196000C7EE277A17EE901AFFF71EBE08B5084B90
:101970001B685BB907480221032200F02BF90548D8
:101980004FF41651BDE8084000F0CEB908BD00BFC5
:101990005C120020B412002002284FF0000309DD81
:1019A000C21E074951F8220041F8223020B10368D5
:1019B0005B681847184670474FF0FF30704700BF0C
:1019C000580F0020022870B50C4615460FDC0E4B50
:1019D0001B680BB9FFF7CAFF6619B44205D00B4864
:1019E00014F8011B00F0CAF9F7E7284670BD033868
:1019F000074B53F8200020B10368BDE870401B6816
:101A000018474FF0FF3070BD5C120020B412002068
:101A1000580F0020022810B50C460ADC0B4B1B683F
:101A20000BB9FFF7A3FF0A4800F08CF920700120E2
:101A300010BD0338074B53F8200020B10368BDE800
:101A400010409B6818474FF0FF3010BD5C1200201B
:101A5000B4120020580F0020022807DD0338064B7F
:101A600053F8200020B103681B6918470020704715
:101A70004FF0FF30704700BF580F0020704708B587
:101A8000FFF7B1FCFFF7FAFF08BD704708B5FFF795
:101A9000FCFFBDE80840FEF7D7BB00000C4A136806
:101AA00010B51844EFF30881884205D3094B0C2286
:101AB0001A604FF0FF3010BD0749096821B1074C8B
:101AC000246821448842F1D21060184610BD00BF3E
:101AD000A001002064130020540F002058100020A3
:101AE000074C08B523680546986802F029FF23686B
:101AF000D86802F025FF0DB1FFF714FCFEE700BF28
:101B0000A8010020012070477047704708B5FFF713
:101B1000FBFF08BD08B5FFF7F8FF08BD10B502F0E0
:101B2000DDFF044610B9024802F06EFB204610BDEE
:101B30005DA3000808B102F0D9BF7047034610B595
:101B400053F8042B044602B9036022689A4204D079
:101B500003480449592202F0F5FA206810BD00BF7D
:101B600099A30008ADA300084268184903469201F2
:101B700010B588181C688C509A6842600246D96873
:101B800042F8081F196951605969916000F110010C
:101B90001A6A8A600022C261C2848284C2858285F8
:101BA000B3F91A20013201D1082305E0B3F9183046
:101BB00001330CBF04230C234B6001F0C4FE20B1A1
:101BC0000348BDE8104002F01FBB10BD5C100020B0
:101BD000FEA30008F0B5044685B008460E46494904
:101BE000154602F059FA48490746284602F054FAC9
:101BF0000146384602F032FA2060013004D14348F1
:101C00004349662202F09EFA2368424A93421DD05D
:101C100002F5806293422FD0A2F55042934241D107
:101C20003D4B1A6A42F400321A621A6A22F40032F8
:101C30001A62002202921A6C42F400321A641B6C7F
:101C400003F400330293029B01232AE0324B5A6AC9
:101C500042F010025A625A6A002122F010025A62BF
:101C600001915A6C42F010025A645B6C616003F09F
:101C700010030193019B15E0274B5A6A42F02002A2
:101C80005A625A6A22F020025A62002203925A6C67
:101C900042F020025A645B6C03F020030393039B21
:101CA000052363603046174902F0BAF92846164901
:101CB00002F0B6F9721C03D030460121FFF738FC60
:101CC0006B1C03D028460121FFF732FC4FF416535A
:101CD000A3600023E360236163612362268365833D
:101CE0002046FFF741FF22680C4B9A4207D10C4B6C
:101CF0000C4801221A6021464C2202F051FF05B027
:101D0000F0BD00BF789F00088C9D000816A4000855
:101D100032A4000800100140003802400044004096
:101D20005C120020B41200208160FFF71DBF00008C
:101D30004368034A9B01D3581868C0F340107047AA
:101D40005C10002038B5446805462846FFF7F0FFD0
:101D50000028FAD0A401034B1B595868C0F30800AF
:101D600038BD00BF5C1000204368034A9B01D35874
:101D70001868C0F3C01070475C10002070B545684B
:101D800006460C463046FFF7EFFF0028FAD0AD01BB
:101D9000024B5B59C4F308045C6070BD5C1000200A
:101DA000DFF820D0002103E0074B5B58435004319B
:101DB0000648074B42189A42F6D301F0CDFEFEF7D3
:101DC00009FA704700800120B0A90008980100209E
:101DD000680B0020FEE7000008B50B4B1A6842F4C0
:101DE00000721A601A6842F480621A601A6842F43B
:101DF00080721A60032000F017F80F20FEF722FF10
:101E000000F047F8002008BD003C0240024A136879
:101E100001331360704700BF00130020014B1868A6
:101E2000704700BF00130020074AD36823F4E06323
:101E30001B041B0C43F0BF6343F4003300F00700A6
:101E400043EA0023D360704700ED00E043092033EC
:101E500000F01F0004490122824041F82320BFF313
:101E60004F8FBFF36F8F704700E100E090F835307F
:101E7000022B01BF0523026880F83530136815BFB7
:101E8000802323F001034365136014BF0120002069
:101E9000704770472DE9F3410F68002201239340FA
:101EA00003EA07059D4240F0B9804C6824F0100C0D
:101EB000BCF1020F14D14FEAD20E00EB8E0E02F0ED
:101EC0000706DEF82030B6004FF00F0808FA06F8D3
:101ED00023EA08080B69B34048EA0303CEF8203030
:101EE0004FEA420E0323066803FA0EF3DB4303EACC
:101EF000060804F0030606FA0EF60CF1FF3C48EA69
:101F00000606BCF1010F066011D8866803EA060CCC
:101F1000CE6806FA0EF64CEA06068660466826EAA1
:101F2000050CC4F3001696404CEA06064660C668E7
:101F300003EA060C8B6803FA0EF64CEA0603C3604C
:101F4000E3006BD5394E00230193D6F844E04EF4FC
:101F5000804EC6F844E0766C06F480460196019EF9
:101F600022F0030606F1804606F59C3602F0030CCB
:101F7000D6F808804FEA8C0C4FF00F0E0EFA0CFECC
:101F800028EA0E0EDFF8AC80404519D003F18043FB
:101F900003F5013398420ED003F5806398420CD0CC
:101FA00003F5806398420AD003F5806398420CBF22
:101FB0000423052304E0012302E0022300E00323BD
:101FC00003FA0CF343EA0E03DFF864E0B360DEF8D3
:101FD0000030EE4314F4803F14BF2B433340CEF85F
:101FE0000030DEF80430DFF848E014F4003F14BF9E
:101FF0002B433340CEF80430DEF8083014F4801F51
:1020000014BF2B433340CEF80830DEF80C30A40266
:1020100054BF06EA03051D43054BDD600132102A5B
:102020007FF43CAF02B0BDE8F08100BF0038024051
:10203000003C0140000002402DE9F04100224FF039
:10204000010C0CFA02F303EA010E9E455FD1032353
:1020500002FA0CF5046803FA05F5ED4322FA03F7DA
:102060002C4000EB8707046002F007083C6A0F264B
:102070004FEA880806FA08F824EA08043C628768F0
:10208000DFF89C802F40876047686FEA0E04274086
:102090004760C7683D40C56022F0030505F18045F3
:1020A00005F59C3502EA0307D5F808E0BF00BE40FD
:1020B000404506EA0E0E11D008F5806840450FD065
:1020C000DFF860C060450DD00CF5806C60450AD02B
:1020D000114B98420CBF0423052304E0002302E0C7
:1020E000634600E00223BB409E4510D1AB6823EA63
:1020F00006060A4BAE601D6825401D605D682540E0
:102100005D609D6825409D60DD682C40DC6001328B
:10211000102A94D1BDE8F08100100240003C01403B
:1021200000000240000802402DE9F843089C0546E3
:102130000E4690461F46C1F307492B68B9F1010FBF
:102140000CBF58699869C04380B230420CBF01236C
:102150000023434512D17B1CEFD04FB9002320222E
:102160002B6385F83C3085F83D200320BDE8F883DB
:10217000FFF754FE001BB842DFD9EFE70020BDE8AF
:10218000F883704770B50446002863D090F83D305E
:1021900003F0FF021BB980F83C20FFF7F2FF226832
:1021A0002D4D242384F83D30136823F00103136080
:1021B00001F080F8636822682849B0FBF1F1AB4276
:1021C0002E4688BF4FF49675516082BF69434FF425
:1021D0007A75B1FBF5F1B34201F10101116208D842
:1021E0005B00B0FBF3F0C0F30B03032B98BF04209C
:1021F00016E0A16849B903EB4303B0FBF3F0C0F369
:102200000B0363B140F400400AE019214B43B0FBDB
:10221000F3F0C0F30B0313B140F4404000E00120A1
:10222000216AE369D0610B431360E16823690B43C2
:102230009360A16963690B43D360136843F00103A2
:10224000136000202023206484F83D30206384F84C
:102250003E0070BD012070BDA086010040420F000D
:1022600073B50024019490F83D40069D202C01D0C8
:1022700002204DE0042D06D0012D04D090F83C4002
:10228000012C1AD1F4E7234C46F2A8162468B4FBBB
:10229000F6F6192474430194019C661E01963CB91C
:1022A0002023046380F83C4080F83D3003202FE079
:1022B0000468A469A407EFD4E0E7012480F83C4057
:1022C0000468266826F400662660212680F83D60B2
:1022D000102680F83E60002606644385C56241648E
:1022E0000385036B4262122B00D04BB9042D03D03F
:1022F000012D01D0122B03D1236843F48073236096
:102300006268002342F4E06280F83C306260184664
:1023100002B070BDA401002073B50024019490F8B0
:102320003D40069D202C01D0022054E0042D06D013
:10233000012D04D090F83C40012C1AD1F4E7274C31
:1023400046F2A8162468B4FBF6F6192474430194E7
:10235000019C661E01963CB92023046380F83C4032
:1023600080F83D30032036E00468A469A407EFD468
:10237000E0E7012480F83C400468266826F4006603
:102380002660222680F83D60102680F83E600026F8
:1023900006644385C56241640385036B4262112B69
:1023A00000D083B9042D06D0012D04D015F5803F4F
:1023B00001D0112B07D1236843F480632360236885
:1023C00043F4807323606268002342F4E06280F883
:1023D0003C306260184602B070BD00BFA40100200E
:1023E00090F83D30202B01BF282380F83D30036852
:1023F0001A6801BF42F480621A605A6842F440725F
:1024000006BF00205A600220704700002DE9FF47F8
:1024100004461F4689469046FFF700FD94F83D307C
:10242000202B064601D0022081E000904149204641
:1024300001221923FFF778FE0028F4D194F83C30EC
:10244000012BF0D02268012384F83C30136823F478
:1024500000631360242384F83D30374B2064054625
:10246000E3622268136843F4807313602046009689
:102470004FF0011100223B46FFF756FE08B1032042
:1024800055E0236809F0FE021A61FFF7C7FC064613
:10249000236859695A6994F83D30C1F34001C2F389
:1024A0008022DBB269B962B9A02B0AD01FB9A02380
:1024B00084F83D30ECE7FFF7B1FC801BB842F6D85A
:1024C000E6E723684FF0200A84F83DA05A6912F02D
:1024D000020F1A6842F400721A6014D000220392AC
:1024E0005A6903929B690393039B00962046114906
:1024F00001221923FFF718FE0028C0D184F83DA05F
:1025000084F83C0013E06FF480625A612046009624
:10251000084901221923FFF707FE0028AFD1013532
:1025200045459ED384F83C0084F83DA0012004B0CA
:10253000BDE8F087020010000000FFFF7047704701
:102540000368F0B59D6959695A6890F83E40E4B255
:10255000102C8BB002D0402C40F03F8211F0011FB4
:102560002FD097052DD590F83E40402C05D1046D15
:102570000CB9446C0AE0446C0BE00469B4F5804F7C
:102580000AD190F83D40212C446C02D104F0FE04A5
:1025900015E044F001041AE0046D34B9446C04F40D
:1025A0004074E41144F0F00409E0046D012C40F0A3
:1025B000A580446C04F44074E41144F0F1041C61FF
:1025C0009CE09C4C0C4024B1960502D5446CE4B2CE
:1025D000F5E7994C0C40002C00F09080940540F1F8
:1025E0008D8090F83E40C66AD0F830E090F83D709B
:1025F000222FE4B27BD1076D47B9402C06D1019759
:102600005C6901949C690194019C77E0046D84B934
:102610000769B7F5404F0CD102945C6902949C693C
:102620000294029C1C6844F480741C60046D0134A4
:102630005BE0448DA4B234B903945C6903949C6953
:102640000394039C26E0448DA4B2012C27D1042ED0
:1026500015D0082E13D0BEF1120F10D0C46A022C70
:102660001C6814BF24F4806444F480641C6000245B
:1026700004945C6904949C690494049C34E01C6890
:1026800024F480641C60002405945C6905949C69B2
:102690000594059C1C6844F400741C6024E0448D7F
:1026A000A4B2022C15D1C46A022C1C681DBF24F4EC
:1026B00080641C601C6844F4806418BF44F40064A7
:1026C0001C60002406945C6906949C690694069C30
:1026D0000AE01C6844F480641C60002407945C6970
:1026E00007949C690794079C0024046506E0002475
:1026F00008945C6908949C690894089C4F4E504C5F
:102700002E400C40002E00F0B5804E4D0D40002DA7
:1027100064D0510562D5002C60D190F83D20058D24
:1027200090F83E10C46AD2B2C9B2D5B9212A1AD1E2
:10273000042C00F08980082C00F0868014F5803F7E
:1027400000F082805A6822F4E0625A6090F83D30CE
:1027500090F83E2003F003031343036380F83E50D8
:1027600062E0212A05D0402940F00D82222A40F063
:102770000A82428D92B2002A00F0998090F83E20A1
:10278000402A40F0AF81026D7AB9C26C012A826C96
:1027900004D1D2B21A61036D023304E0C2F30722FE
:1027A0001A61036D01330365EDE1026D012A02D167
:1027B000826CD2B2F4E7026D022A40F0E48190F814
:1027C0003D20222A04D11A6842F480721A60DAE1AC
:1027D00090F83D20212A40F0D68183E1002C00F0C2
:1027E000D281970540F1CF81C16A90F83D20212A1E
:1027F00040F0C981428D92B2002A40F073810429D1
:1028000022D0082920D011F5803F1DD0596821F42D
:10281000E061596090F83D3090F83E1003F00303FA
:102820000B43036380F83E20202380F83D30FEF701
:1028300009FDA8E1080001000200010004001000E9
:1028400004000100800001005A6822F4E0625A602E
:102850001A6842F400721A6000232022036380F891
:102860003D2090F83E2080F83E30402ADFD1FFF72F
:1028700065FE88E19E4D0D40002D44D0560542D5A1
:10288000002C40D190F83D20222A40F07C81428DDE
:1028900092B2032A00F26E81023A012A1A6822F4E7
:1028A00080621A6008D81A6842F400621A605A6896
:1028B00022F480625A6066E1C26A022A02BF1A6884
:1028C00042F400621A605A6822F4E0625A60426A76
:1028D0001B69511C41621370438D013B9BB24385C0
:1028E00090F83D3090F83E2003F003031343036358
:1028F000202380F83D3090F83E30402B4FF000030D
:1029000080F83E305DE0002C00F03D81950540F1FF
:102910003A81C26A418D89B20329416A0BD1042AE6
:1029200004D0082A02D012F5803F51D11A6822F44F
:1029300080621A604CE0448DA4B2022C48D1042A73
:1029400018D0082A16D012F5803F13D01C68013A1F
:1029500024F480641C60012A9EBF1A6842F48072CD
:102960001A6090F83D2090F83E4002F003022243A6
:10297000026305E0122202631A6842F400721A60D0
:102980001B694A1C42620B70438D013B9BB243851D
:10299000436A5A1C4262026812691A70438D0268C7
:1029A000013B9BB24385536823F44073536020235B
:1029B00080F83D300023036390F83E2080F83E30DD
:1029C000402A02D1FFF7BBFDDDE0FEF75AFCDAE05A
:1029D0004A1C1B6942620B70D1E0464C0C4074B13A
:1029E00094050CD599699B6981F004011F06C1F318
:1029F000800154BF8289028BFEF772FCC3E03E4C1B
:102A00000C40002C32D0960530D590F83D20596806
:102A100021F4E0615960002109915C6909941C6806
:102A200044F001041C60099C1C68D2B224F4806448
:102A30001C60A2F12803022B0AD8304BC36220236A
:102A4000016380F83D3080F83E10FEF75BFC9AE0B1
:102A5000036B222B02D0222A40F0958000232022F3
:102A6000036380F83D2080F83E307AE0244E254C08
:102A70002E400C40002E49D0234D0D4055B3550536
:102A800028D53CBB90F83D10428D92B2C9B2002AC5
:102A900079D0426A541C446212781A61428D013A1C
:102AA00092B24285428D92B2002A6CD129296AD114
:102AB0005A6822F480625A6090F83D3090F83E20C7
:102AC00003F0030313430363282380F83D30FEF72C
:102AD00011FC58E0002C56D0940554D5428D92B28A
:102AE000002A50D0426A511C416212781A6146E0B5
:102AF0004000010002000100100001000000FFFF83
:102B00000400100004000100800001001F4D0D4072
:102B100055B3510528D53CBB90F83D20418D89B275
:102B2000D2B200292FD0416A1B694C1C44620B7041
:102B3000438D013B9BB24385438D9BB21BBB2A2A2D
:102B400021D10268536823F48063536090F83D30CC
:102B500090F83E2003F0030313430363282380F817
:102B60003D30FEF7CBFB0EE06CB192050BD5428DEC
:102B700092B242B1426A1B69511C41621370438D8B
:102B8000013B9BB243850BB0F0BD00BF400001008C
:102B9000F8B50368764A5E695D68324004464AB11A
:102BA000EA0541BF026C42F0010202646FF48072D8
:102BB00048BF5A6116F4813F09D0EF0541BF226C2E
:102BC00042F0020222646FF4007248BF5A6116F4A8
:102BD000823F63D0E80561D594F83E70618D94F82A
:102BE0003D20206B202F89B2D2B24CD100294AD18E
:102BF00002F0F701212903D0282A44D1212842D10B
:102C000094F83D20E16A0429D2B201D0082919D1F3
:102C1000282A17D1574AE2625A6822F4E0625A60C1
:102C20006FF480625A611A6822F480621A6000238D
:102C300020222363204684F83D2084F83E30FEF7AE
:102C400061FB2BE0212A26D14A4AE26294F83D201A
:102C500094F83E1002F003020A432263202284F813
:102C60003D20002284F83E205A6822F4E0625A6037
:102C70006FF480625A611A6822F480621A602046FA
:102C8000FEF738FB0AE0226C42F0040222641A6864
:102C900042F400721A606FF480625A6116F4843F45
:102CA0000AD0E90541BF236C43F00803236423687D
:102CB00044BF6FF400625A61236C002B56D094F825
:102CC0003D30293B012B05D800232363282384F8BA
:102CD0003D300AE094F83D30602B1CBF202384F87F
:102CE0003D300023236384F83E3023681A6822F4C1
:102CF00000621A601A68120517D55A68606B22F4D0
:102D000000625A6030B11C4B0365FFF7AFF8D0B1D9
:102D1000606B07E0A06BB0B1174B0365FFF7A6F837
:102D200088B1A06B036D98470DE094F83D30602B9F
:102D300006D1202384F83D302046FEF7E5FA02E074
:102D40002046FEF7B5FA94F83D30282B0ED1236CBF
:102D50005B070BD5074BE362202200232363204649
:102D600084F83D2084F83E30FEF7CCFAF8BD00BF71
:102D7000000101000000FFFF7D2D0008806B02684C
:102D800008B5136823F480631360426B0023438506
:102D90001365826B136590F83D20602A4FF0200286
:102DA00080F83D2080F83E3002D1FEF7ADFA08BD34
:102DB000FEF77EFA08BD90F83D20D2B2202A10B569
:102DC00016D1242380F83D3003681C6824F00104E8
:102DD0001C605C6A24F010045C625C6A21435962E6
:102DE000196841F00101196080F83D20002010BDF4
:102DF000022010BD0368F7B5D907044603D4236841
:102E00009A073BD488E0A74B9A6802F00C02042A88
:102E100007D09A6802F00C02082A0BD15B685B02AB
:102E200008D5A04B1B689F03E9D56368002BE6D14A
:102E3000012034E19C4B22791A7063687BB1FEF764
:102E4000EDFF0546974B1B689E03D8D4FEF7E6FFBF
:102E500041F28833401B9842F4D903201FE1FEF76A
:102E6000DDFF05468F4B1B689803C8D5FEF7D6FFDC
:102E700041F28833401B9842F4D9EEE7894B9A68B7
:102E800012F00C0F07D09A6802F00C02082A16D133
:102E90005B68590213D4834B1A68920702D5E26823
:102EA000012AC5D11968F82090FAA0F02269B0FA79
:102EB00080F021F0F80182400A431A602CE0E268B9
:102EC0007A4BDAB101221A60FEF7A8FF0546754871
:102ED00003689F0705D4FEF7A1FF401B0228F6D91F
:102EE000BBE70268F82191FAA1F12369B1FA81F1F7
:102EF00022F0F8028B40134303600DE01A60FEF7E6
:102F00008DFF0546674B1B689E0705D5FEF786FFBC
:102F1000401B0228F6D9A0E72368180703D42368CA
:102F2000590744D51FE06269614B72B101221A60F2
:102F3000FEF774FF05465B4B5B6F9A07EFD4FEF715
:102F40006DFF401B0228F6D987E71A60FEF766FF7F
:102F50000546544B5B6F9B07E1D5FEF75FFF401BB7
:102F60000228F6D979E7002301934E4B1A6C42F000
:102F700080521A641B6C4F4A03F080530193019BEB
:102F8000136843F480731360FEF748FF0546494B0E
:102F90001B68DF050ED5484B227A1A70A368BBB1B7
:102FA000FEF73CFF05463F4B1B6F9E0708D5A26905
:102FB000EAB959E0FEF732FF401B0228E7D94CE797
:102FC000FEF72CFF41F28833401B9842EBD944E7CF
:102FD000FEF724FF0546334B1B6F9807E7D5FEF736
:102FE0001DFF41F28833401B9842F4D935E72D4B41
:102FF0009B6803F00C03082B3FF41AAF2F4D0023FE
:10300000022A2B603ED1FEF709FF064625480368D9
:1030100099012BD447F6C07797FAA7F74FF44036BB
:10302000B7FA87F796FAA6F64FF07061B6FA86F609
:1030300091FAA1F1E369226AB1FA81F11A43636A54
:10304000BB401A43A36A5B08013BB3401343E26AE7
:103050008A401343436001232B60FEF7DFFE0446E2
:10306000104B1B689A0107D5002018E0FEF7D6FE2A
:10307000801B0228CAD9F0E6FEF7D0FE001B02280A
:10308000EED9EAE6FEF7CAFE0446064B1B689B0132
:10309000EAD5FEF7C3FE001B0228F6D9DDE603B031
:1030A000F0BD00BF00380240023802400000474235
:1030B000800E474200700040703802406000474276
:1030C00010B51C4CA36803F00C03042B2ED0082B66
:1030D0002ED1626802F03F03626847F6C07112F4B5
:1030E000800F626891FAA1F147F6C07000EA020011
:1030F00008BF114AB1FA81F120FA01F00EBFB2FB0C
:10310000F3F20E49B1FBF3F202FB00F3094A5068F7
:103110004FF4403292FAA2F200F44030B2FA82F256
:10312000D04001304000B3FBF0F010BD034810BDAB
:10313000014810BD003802400024F40000127A005B
:10314000584B1A6802F00F02914270B504460D46C2
:103150000AD82168880710D55348836823F0F00205
:10316000A3681343836008E0CAB21A701B6803F0B7
:103170000F038B42EDD0012070BDC90706D4494B27
:103180001A6802F00F0295425AD360E06368464A1B
:10319000012B03D1126812F4003F08E0991E0129A7
:1031A000126802D812F0007F01E012F0020FE2D0A4
:1031B0003D498A6822F0030213438B60FEF72EFE1E
:1031C0006368012B06460ED1374B9B6803F00C0356
:1031D000042BD4D0FEF722FE41F28833801B9842A4
:1031E000F2D9032070BD022B0DD12F4B9B6803F049
:1031F0000C03082BC3D0FEF711FE41F28833801B6D
:103200009842F2D9EDE7032B14D1274B9B6803F0CA
:103210000C030C2BB3D0FEF701FE41F28833801B68
:103220009842F2D9DDE7FEF7F9FD41F28833801BC1
:103230009842D6D81C4B9B6813F00C0FF3D19EE735
:10324000EAB21A701B6803F00F03AB4293D12168F6
:103250004A0706D51448836823F4E052E368134311
:1032600083600B0741BF104A2169936823F46043D0
:1032700044BF43EAC1039360FFF722FF0A4BF022E9
:103280009B6892FAA2F203F0F003B2FA82F2D34002
:10329000064AD35CD840064B18600F20FDF7D2FCDD
:1032A000002070BD003C024000380240FBA4000832
:1032B000A4010020084B4FF4E0529B6892FAA2F25E
:1032C00003F4E053B2FA82F2D340044AD35C044AD6
:1032D0001068D840704700BF00380240FBA40008C7
:1032E000A4010020084B4FF460429B6892FAA2F2BE
:1032F00003F46043B2FA82F2D340044AD35C044A36
:103300001068D840704700BF00380240FBA4000896
:10331000A40100200F2303600B4B9A6802F0030204
:1033200042609A6802F0F00282609A6802F4E05209
:10333000C2609B6803F46043DB080361034B1B68B6
:1033400003F00F030B60704700380240003C02405E
:10335000036A23F001030362036A426870B584695B
:103360000D6824F07304254323F002048B68234383
:103370000A4CA0420BD1CC688E6923F0080323438A
:103380004C6922F44072344323F004032243426028
:103390004A6885614263036270BD00BF000001405E
:1033A000036A23F480730362036A426830B5C46918
:1033B0000D6824F073042C438D6823F4007343EAF2
:1033C00005230C4DA8420ED1CD6823F4006343EAD7
:1033D00005234D6922F4405242EA05128D6923F417
:1033E000806342EA051242604A68C461C2630362B4
:1033F00030BD00BF00000140036A23F48053036224
:10340000036A30B54468C2690D6822F4E64242EAB4
:1034100005228D6823F4005343EA0533064DA84284
:1034200002BF4D6924F4804444EA85144460C261BB
:103430004A680264036230BD000001407047704773
:10344000224A036890420ED0B0F1804F0BD0A2F513
:103450007C42904207D002F58062904203D002F590
:103460008062904214D14A6823F070031343174AD4
:10347000904225D0B0F1804F22D0154A90421FD003
:1034800002F5806290421BD002F58062904217D014
:10349000104A904214D002F58062904210D002F59A
:1034A000806290420CD003608B68C3620B688362B9
:1034B000064B984204BF0B690363012343617047C5
:1034C000CA6823F440731343EDE700BF00000140D6
:1034D000000400400040014010B50446A0B190F83F
:1034E000393003F0FF021BB980F83820FFF7A6FF40
:1034F000022384F839302068211DFFF7A1FF012342
:1035000084F83930002010BD012010BD10B50446EC
:10351000A0B190F8393003F0FF021BB980F83820D1
:10352000FFF78DFF022384F839302068211DFFF753
:1035300087FF012384F83930002010BD012010BD21
:10354000036A23F010030362036A426830B584699A
:103550000D6824F4E64444EA05248D6823F0200332
:1035600043EA05130B4DA8420ED1CD6823F080032A
:1035700043EA05134D6922F4406242EA85028D69EF
:1035800023F0400342EA850242604A688461826314
:10359000036230BD0000014038B590F83830012B8F
:1035A00004460D464FF0020058D0012384F838300D
:1035B00084F839000C2A4BD8DFE802F0074A4A4A5F
:1035C000174A4A4A294A4A4A39002068FFF7C0FE8A
:1035D00023689A6942F008029A619A6922F004020B
:1035E0009A6199692A690A430FE02068FFF7A8FFEA
:1035F000236829699A6942F400629A619A6922F4FF
:1036000080629A619A6942EA01229A6120E0206808
:10361000FFF7C6FE2368DA6942F00802DA61DA6968
:1036200022F00402DA61D9692A690A430FE02068AE
:10363000FFF7E2FE23682969DA6942F40062DA6181
:10364000DA6922F48062DA61DA6942EA0122DA6137
:103650000123002084F8393084F8380038BD10B5D3
:103660000123046A8B4024EA03030362036A8A404D
:103670001343036210BD000010B504460122006828
:10368000FFF7EDFF2368064A934202BF5A6C42F4EB
:1036900000425A641A6842F001021A60002010BD0C
:1036A0000000014010B5044601220068FFF7D7FF73
:1036B0002368064A934202BF5A6C42F400425A649D
:1036C0001A6842F001021A60002010BD000001409B
:1036D00010B50423046A8B4024EA03030362036ADF
:1036E0008A401343036210BD10B5044604220068EB
:1036F000FFF7EEFF23685A6C42F400425A641A68DE
:1037000042F001021A60002010BD00002DE9F047D0
:1037100006683369044623F44052C3682169C069CE
:103720001343A2683361F3681143626923F41643BB
:103730000A43024323F00C031343F360736923F439
:103740004072A369B0F5004F43EA020373617B4BFB
:103750007CD19E4203D003F580639E4231D1FFF7B6
:10376000C1FD636819254FEA43086843B0FBF8F8C8
:10377000FFF7B8FD676868437F00B0FBF7F7FFF716
:10378000B1FD63684FF064095B006843B0FBF3F080
:10379000B0FBF9F009FB1077FFF7A4FDB8FBF9F8CF
:1037A0006268FF003237B7FBF9F707F0F8076843A4
:1037B00052004FEA08187F00B0FBF2FAFFF792FDC3
:1037C00030E0FFF777FD636819254FEA4308684347
:1037D000B0FBF8F8FFF76EFD676868437F00B0FB49
:1037E000F7F7FFF767FD63684FF064095B00684314
:1037F000B0FBF3F0B0FBF9F009FB1077FFF75AFDCF
:10380000B8FBF9F8FF0062683237B7FBF9F707F049
:10381000F807684352004FEA08187F00B0FBF2FA3D
:10382000FFF748FD454360684000B5FBF0F0B0FB92
:10383000F9F009FB10A2D2003232B2FBF9F303F027
:10384000070343441F44B760BDE8F0879E4202D09F
:103850003B4B9E422ED1FFF745FD67681925684313
:10386000BF00B0FBF7F7FFF73DFD636868439B00BF
:10387000B0FBF3F8FFF736FD63684FF06409684367
:103880009B00B0FBF3F0B0FBF9F009FB10831B01C8
:103890003233B3FBF9F303F0F008FFF723FDB7FB76
:1038A000F9F76268684392003F01B0FBF2FAFFF754
:1038B00019FD2DE0FFF7FEFC676819256843BF007E
:1038C000B0FBF7F7FFF7F6FC636868439B00B0FBBB
:1038D000F3F8FFF7EFFC63684FF064099B0068435F
:1038E000B0FBF3F0B0FBF9F009FB10831B0132339E
:1038F000B3FBF9F303F0F008FFF7DCFCB7FBF9F7D3
:103900006268684392003F01B0FBF2FAFFF7D2FC15
:10391000454360688000B5FBF0F0B0FBF9F009FBAF
:1039200010A212013232B2FBF9F202F00F0208EBE0
:1039300002033B44B360BDE8F08700BF00100140C4
:1039400000140140704710B5044640B390F8393078
:1039500003F0FF021BB980F83820FFF7F3FF22685D
:10396000242384F83930D36823F40053D3602046ED
:10397000FFF7CCFE23681A6922F490421A615A6953
:1039800022F02A025A61DA6842F40052DA6000201A
:103990002023E06384F8393084F83A3010BD0120E8
:1039A00010BD0000174A1849936803F00C03042B5C
:1039B00003D0082B03D0154B18E0154B16E05068C8
:1039C000536810F4800F03F03F03506814BF104A8F
:1039D0000E4AB2FBF3F30B4A5268C2F30142C0F342
:1039E0008810013243435200B3FBF2F30B60054BE6
:1039F000084A9B68C3F30313D25C0B68D3400B6087
:103A0000704700BF00380240A40100200024F400E9
:103A100000127A000BA5000810B594B0214B0021CC
:103A200001911A6C42F080521A641B6C1E4A03F01A
:103A300080530193019B0291136823F4404343F4A4
:103A400000431360136803F440430293029B012375
:103A5000089300B1052309934FF480030F930823C3
:103A600010934FF4A873119304230224129308A80F
:103A700007230E941393FFF7BDF978B90F2303932F
:103A800005904FF480530790214603A804940693B1
:103A9000FFF756FBB0FA80F0400900E0002014B0B8
:103AA00010BD00BF003802400070004030B595B036
:103AB0000024204B01941A6C42F080521A641B6C53
:103AC0001D4A03F080530193019B0294136823F471
:103AD000404343F4004313601368099403F44043E4
:103AE0000293029B0F940323089301230B9310234B
:103AF0000C9310934FF4A87311930423022512938F
:103B000008A807230E951393FFF774F978B90F23CC
:103B1000039305904FF480530790294603A804951A
:103B20000693FFF70DFBB0FA80F0400900E0204655
:103B300015B030BD003802400070004008B50120CB
:103B4000FFF76AFF30B9FFF767FF18B9FFF7AEFF5D
:103B500000B9FEE708BD0000174AD2F8883010B55A
:103B600043F47003154CC2F888302368002143F0F9
:103B700001032360A160236823F0847323F480335E
:103B800023600F4B6360236823F4802323604FF08E
:103B90000063E16093600B4B0B4A1A60FEF71CF95F
:103BA000FFF7CCFF236A43F008032362236A23F064
:103BB0000803236210BD00BF00ED00E000380240A2
:103BC00010300024A40100200024F400054B1868E4
:103BD00030B901221A60044B044A1A60FDF732B86A
:103BE000704700BF6012002004130020000C00404A
:103BF00008B5044B1B680BB9FFF7E8FF024B586A86
:103C000008BD00BF60120020000C0040044B054AB4
:103C100013605863DA6842F00202DA60704700BF4E
:103C2000000C004004130020034B044A1360DA68C0
:103C300022F00202DA607047000C004004130020FA
:103C4000034A044B13606FF002021A61704700BF11
:103C500004130020000C004010B580B114685368B4
:103C60000CB9DA070BD513F0010F4FEA63031CBF41
:103C7000C258145918442346BDE81040184710BDD7
:103C8000F7B51A4B036000230F460093019302A976
:103C900003610446164600F1180211E9030082E8A8
:103CA00003001349216248F207016162E362A462E2
:103CB0002263104A6263BFF36F8FBFF34F8F04F12B
:103CC0003C0584F8383019462846942201F002F861
:103CD000094BC4F8D030284639463246FDF716F96C
:103CE000064B20461C6003B0F0BD00BF28A50008AD
:103CF00001A090E8593C0008A08601006412002051
:103D0000036870B5094D1B68044698472B68A342A9
:103D100006D004F13C00D4F8D010FDF7CFF82C60A9
:103D2000236820465B68BDE8704018476412002095
:103D3000F7B51D46036804461B680F4616469847AC
:103D40002046FFF7DDFF9DF8203083F00103324667
:103D5000009339462B4604F13C00FDF707FA23682F
:103D600006465B6820469847A81B18BF012003B091
:103D7000F0BDF7B51D46036804461B680F4616469E
:103D800098472046FFF7BCFF9DF8203083F00103E1
:103D90003246009339462B4604F13C00FDF77AF990
:103DA000236806465B6820469847A81B18BF012079
:103DB00003B0F0BDC36810B504460BB19B689847CB
:103DC000204610BD10B5044B044640F8043BFFF7F5
:103DD000F1FF204610BD00BF28A5000810B504461D
:103DE000FFF7F0FF2046FDF7A5FE204610BD0000BE
:103DF00008B50248FDF7A2FE08BD00BF681200200A
:103E000008B50248FDF79AFE08BD00BF6812002001
:103E100070470368184708B10B6803607047704724
:103E2000C36810B504460BB19B689847204610BD87
:103E300010B5084B044640F8143BFCF76DFE04F146
:103E40003400FFF7EDFF04F12400FFF7E9FF2046FF
:103E500010BD00BF50A5000810B50446FFF7E8FFED
:103E60002046FDF767FE204610BD000038B5044629
:103E70000D46FFF7D5FF2CB10DB9E56038BD024BFB
:103E80002560E36038BD00BF38A500082DE9F0418A
:103E90000546174B45F8043B04464FF010080E4604
:103EA000424604F114072846002100F013FF424661
:103EB0003846DFF84480002100F00CFF0023236324
:103EC000236404F124004146FFF7D0FF04F13400DD
:103ED0004146FFF7CBFF3146064A23463846FCF7FA
:103EE00091FD2846314600F07DF82046BDE8F0817E
:103EF00050A50008793F0008113E00082DE9F04167
:103F00000D46064600F038F9EF6806F1240406F184
:103F10001408204677B1FFF783FF3CB1EB681BB173
:103F20005B68204629469847EB6833630121404689
:103F30000A4605E00549FFF799FF404601213A4648
:103F4000FCF720FEBDE8F04100F040B9113E00084A
:103F5000C36810B504462BB90548064940F2E7127C
:103F600000F0F0F8E36820461B68BDE810401847F1
:103F700058A500085DA50008012908B502D002294E
:103F800002D008BD243000E03430FFF7E1FF08BD67
:103F900070B50E4604461546FCF7B0FC013609D054
:103FA00020460021FCF7C4FC20462946BDE87040AD
:103FB000FCF7B9BC70BD000038B5B0F90030013372
:103FC00004460D4604D105480549342200F0BAF8EC
:103FD000E268636805B91B04136038BD299D0008B9
:103FE000B9A000080022FFF7D3BF70B50E46044603
:103FF0001546FCF783FC01360DD020462946FFF715
:10400000DBFF20460121FCF793FC20460021BDE8A0
:104010007040FCF788BC70BD0022FFF7E6BF0000CF
:1040200010B50446013001D110BD0C31B1F900309A
:104030005A1C0BD0A342F8D120468968FDF74AFAF2
:1040400020460021BDE81040FDF772BA0248BDE8E5
:10405000104000F0D9B800BFA6A50008884208B5F6
:104060000AD0431C07D0013106D0044800F0CCF838
:104070004FF0FF3008BD084608BD00BFB7A50008D7
:10408000B1F900305A1C05D0834201D1486870470D
:104090000C31F5E718467047421C10B5044607D0AE
:1040A000FFF7EEFF431C044602D1024800F0ACF8D3
:1040B000204610BDC8A50008B1F900305A1C05D033
:1040C000834201D1886870470C31F5E71846704784
:1040D000421C10B5044607D0FFF7EEFF431C044610
:1040E00002D1024800F090F8204610BDE8A5000873
:1040F000014800F003B800BF1CA60008036870B5B3
:10410000DB680446984763685A6823681AB99B6855
:10411000BDE8704018475B6815689847281A002862
:10412000636808DC5A68916859601B68002BEAD004
:1041300050689847E7E721685A680B691068BDE83E
:104140007040184770B506460D46144600F014F846
:1041500031462A4623460348FDF738F9BDE870404A
:10416000FDF7E0B824A60008EFF3108000F001008E
:1041700080F001007047000038B5FFF7F5FF80F0D0
:104180000100C5B272B60C4C23680BB90B4B1D7005
:104190002368013304D10A480A493522FFF7D2FFC8
:1041A00023682BB125B9084806493922FFF7CAFF11
:1041B00023680133236038BD781200207C12002070
:1041C00055A600087BA60008BEA6000810B50A4C3C
:1041D000236883B1FFF7C8FF20B1084808494A2285
:1041E000FFF7B0FF2368013B236023681BB9054B31
:1041F0001B7803B962B610BD78120020BEA6000875
:104200007BA600087C1200200FB407B504A951F862
:10421000040B0191FDF7B2F8012000F0A9FA38B5BE
:104220000446FFF7E5FC0546FFF7E2FC401BA04211
:10423000FAD338BD07EE100ADFED047A67EE277A6D
:10424000FDEEE77A17EE900AFFF7E9BF0024744904
:104250004FF47A735843FFF7E2BF000021F00043A8
:104260001946704700F000B82DE9F84F1D4653423B
:10427000134325F00049DFF8C8C149EAD373634509
:10428000144606460F4626D8C0F1000848EA000842
:1042900021F0004A4AEAD878E04503468B461AD80E
:1042A00005F1404808F5801858EA0208AE4643D0A8
:1042B0004FEAA57808F002085AEA030348EAD178E1
:1042C00011D1B8F1020F55D0B8F1030F09D14AA1AD
:1042D000D1E9000105E032463B462046294604F07C
:1042E000CDF8BDE8F88F59EA020329D0E1452ED078
:1042F000E24525D0AAEB09094FEA2959B9F13C0F4B
:104300003CDC002D3EDA19F13C0F3BDA00200021A5
:10431000B8F1010F4ED0B8F1020F3ED0B8F1000F46
:10432000DFD037A3D3E9002304F0A6F836A3D3E9FE
:10433000002304F0A1F8D4E7BDE8F84F00F084B8FA
:10434000BBF1000F12DB32A1D1E90001C9E7CA4578
:1043500034D0B8F1020F0DD0B8F1030FB7D0B8F1D7
:10436000010F4FF0000036D00021BAE72AA1D1E9B1
:104370000001B6E724A1D1E90001B2E724A1D1E907
:104380000001C5E722462B463046394604F056FB6D
:10439000FFF764FF00F058F8BAE719A3D3E9002348
:1043A00004F06AF802460B4617A1D1E9000104F0B7
:1043B00063F896E701F10043194692E7B8F1020F5E
:1043C00014D0B8F1030F0DD0B8F1010F06D014A12D
:1043D000D1E9000185E74FF0004182E712A1D1E960
:1043E00000017EE712A1D1E900017AE712A1D1E92B
:1043F000000176E7AFF30080182D4454FB2109C07B
:10440000075C143326A6A13C182D4454FB21094017
:10441000182D4454FB21F93F182D4454FB21F9BFBA
:10442000182D4454FB21E93F182D4454FB21E9BFCA
:10443000D221337F7CD902C0D221337F7CD9024084
:104440000000F07F000000002DE9F84FBE4B21F086
:1044500000469E4204460D468A460EDDBB4B9E42F8
:1044600000F3B18000F0AC80BAF1000F40F3EA80B5
:1044700099A1D1E90001BDE8F88FB54B9E4200F348
:10448000BA80A3F1DE739E4240F3A5804FF0FF3B5C
:1044900022462B462046294604F0A6F902460B4642
:1044A0008046894604F0A0F98DA3D3E9002306468F
:1044B0000F4604F099F98CA3D3E9002303F0DEFF43
:1044C00032463B4604F090F989A3D3E9002303F078
:1044D000D5FF32463B4604F087F987A3D3E9002392
:1044E00003F0CCFF32463B4604F07EF984A3D3E9C7
:1044F000002303F0C3FF32463B4604F075F982A364
:10450000D3E9002303F0BAFF42464B4604F06CF9AE
:104510007FA3D3E90023804689463046394604F01C
:1045200063F97DA3D3E9002303F0A6FF32463B469F
:1045300004F05AF97AA3D3E9002303F09DFF324631
:104540003B4604F051F978A3D3E9002303F094FF2C
:1045500032463B4604F048F975A3D3E9002303F043
:104560008BFF32463B4604F03FF902460B4640467D
:10457000494603F083FF22462B4604F035F9BBF190
:10458000FF3F02460B4661D0724B734E4FEACB0B96
:104590005B44D3E9002303F06FFF22462B4603F070
:1045A0006BFFB34402460B46DBE9000103F064FFF6
:1045B000BAF1000F0DDA01F100431946BDE8F88F9A
:1045C00000283FF451AF22462B462046294603F0EF
:1045D00055FFBDE8F88F58A3D3E9002303F04EFF41
:1045E00000225E4B04F090FB00283FF44FAF2046C2
:1045F0002946BDE8F88FFFF731FE594B9E4204462D
:104600000D4629DCA3F550239E424EDC02460B46A4
:1046100003F034FF0022514B03F02EFF0022064628
:104620000F464FF080432046294603F027FF0246FD
:104630000B463046394604F001FA4FF0000B0446B1
:104640000D4625E73EA1D1E90001C2E720462946F3
:1046500003F012FFBDE8F88F424B9E421ADC0022A5
:10466000414B03F009FF002206460F463E4B204611
:10467000294604F0B9F80022384B03F0FFFE024649
:104680000B463046394604F0D9F94FF0020B044688
:104690000D46FDE602460B460020344904F0CEF9F3
:1046A0004FF0030B04460D46F2E600222B4B03F0BD
:1046B000E3FE002206460F46284B2046294603F01B
:1046C000DDFE02460B463046394604F0B7F94FF09E
:1046D000010B04460D46DBE6182D4454FB21F93F3F
:1046E00011DA22E33AAD903FEB0D76244B7BA93FE4
:1046F000513DD0A0660DB13F6E204CC5CD45B73FB2
:10470000FF8300922449C23F0D5555555555D53F5D
:104710002F6C6A2C44B4A2BF9AFDDE522DDEAD3F51
:104720006D9A74AFF2B0B33F711623FEC671BC3FF1
:10473000C4EB98999999C93F9C7500883CE4377EF1
:10474000182D4454FB21F9BFFFFF0F440000F07FF8
:10475000FFFFDB3FF8A60008D8A600080000F03FE6
:10476000FFFFF23FFF7F03400000F83F0000F0BF73
:1047700008B50021044600F023FC044B1868C36B05
:1047800003B198472046FDF7ABF900BF18A7000812
:10479000B1F90C309AB22DE9F0410C461107804670
:1047A00044D4626843F40063002AA38159DDA56AFA
:1047B000002D53D000229BB2D8F80060E169C8F800
:1047C000002013F4805240F0838001234046A84724
:1047D000421C4AD0A389A56AE1695B0705D56268D6
:1047E000236B801A0BB1E36BC01A024600234046CC
:1047F000A847471C45D0B4F90C302269226023F445
:1048000000630022A381DB04626000D52065216B78
:10481000C8F8006011B304F14003994202D0404649
:1048200004F03EFC00202063BDE8F0812669AEB1B3
:104830002568266092070CBF63690023AD1BA36047
:104840000AE02B463246676AE1694046B8470028CD
:10485000A5EB000506442BDD002DF2DC0020BDE8B1
:10486000F081E26B002AA2DCF8E7D8F80030002BD8
:10487000B0D01D2B01D0162B2CD1C8F80060002021
:10488000EDE7D8F800101D291AD8154BB4F90C2003
:10489000CB40DB4313F0010314D1256922F40062FD
:1048A000C4E90053D504A281B1D50029AFD1ADE749
:1048B000A38943F04003A3814FF0FF30BDE8F081AE
:1048C000B4F90C2042F04002A2814FF0FF30C6E75D
:1048D000206D82E7A38943F04003A381BFE700BFB7
:1048E0000100402038B50D46044608B1836BA3B1E2
:1048F000B5F90C00B8B16B6EDB0701D481051AD590
:1049000020462946FFF744FF6B6EDA07044602D4BF
:10491000AB899B050AD5204638BD00F051F8B5F9A2
:104920000C000028E7D10446204638BDA86D00F0F1
:10493000D3F8204638BDA86D00F0CCF8E0E700BF02
:1049400020B1054B01461868FFF7CCBF034B044963
:10495000186800F06DB800BFA801002018A7000873
:10496000E548000810B5002304468181C281C0E9F2
:10497000003383604366C0E904338361194608222B
:104980005C3000F0A7F907480749084A084BE36282
:10499000C4E90740C4E9091204F15800BDE8104019
:1049A00000F094B8694D00088D4D0008C94D00080D
:1049B000E94D0008014900F03BB800BFD95000089C
:1049C00010B50446124800F085F8A26BD2B904F580
:1049D0003B731048C4F8E8320321C4F8E022E063D6
:1049E000C4F8E41260680421FFF7BCFF012209212A
:1049F000A068FFF7B7FF02221221E068FFF7B2FFBD
:104A00000123A3630248BDE8104000F065B800BF71
:104A10004C130020B5490008014800F05BB800BF06
:104A200060130020014800F057B800BF6013002059
:104A30002DE9F84310F538771FD0884606464FF029
:104A40000009D7E90154013D11D4A389012B05F1D7
:104A5000FF352146304606D9B4F90E30013302D075
:104A6000C04749EA00096B1C04F16804EDD13F68B6
:104A7000002FE6D14846BDE8F883B9464846BDE870
:104A8000F88300BF70B50D4E0D4D761BB61006D0E5
:104A90000024013455F8043B9847A642F9D1094E49
:104AA000094D761B05F0DCF8B61006D00024013461
:104AB00055F8043B9847A642F9D170BD580B002029
:104AC000580B0020640B0020580B0020704700BFDB
:104AD000704700BF704700BF704700BF024B0146E0
:104AE000186804F0D9BA00BFA8010020024B0146A3
:104AF000186804F0D5BA00BFA8010020000000002B
:104B000001F0FF01102A2BDB10F0070F08D010F87E
:104B1000013B013A8B422DD010F0070F42B3F6D182
:104B2000F0B441EA012141EA014122F007047FF09B
:104B300000070023F0E80256083C85EA010586EAF2
:104B4000010685FA47F5A3FA87F586FA47F6A5FA2E
:104B500087F68EB9EED1F0BC01F0FF0102F007023A
:104B600032B110F8013B013A83EA010313B1F8D1E5
:104B70000020704701387047002D06BF35460338C6
:104B8000073815F0010F07D1013015F4807F02BFFF
:104B9000013015F4C03F0130F0BC0138704700BF50
:104BA000844641EA000313F003036DD1403A41D338
:104BB00051F8043B40F8043B51F8043B40F8043BF7
:104BC00051F8043B40F8043B51F8043B40F8043BE7
:104BD00051F8043B40F8043B51F8043B40F8043BD7
:104BE00051F8043B40F8043B51F8043B40F8043BC7
:104BF00051F8043B40F8043B51F8043B40F8043BB7
:104C000051F8043B40F8043B51F8043B40F8043BA6
:104C100051F8043B40F8043B51F8043B40F8043B96
:104C200051F8043B40F8043B51F8043B40F8043B86
:104C3000403ABDD2303211D351F8043B40F8043B26
:104C400051F8043B40F8043B51F8043B40F8043B66
:104C500051F8043B40F8043B103AEDD20C3205D336
:104C600051F8043B40F8043B043AF9D2043208D02E
:104C7000D2071CBF11F8013B00F8013B01D30B88A0
:104C800003806046704700BF082A13D38B078DD07E
:104C900010F003038AD0C3F10403D21ADB071CBF50
:104CA00011F8013B00F8013B80D331F8023B20F8BA
:104CB000023B7BE7043AD9D3013A11F8013B00F8F3
:104CC000013BF9D20B7803704B7843708B7883707B
:104CD00060467047F0B4860743D0541E002A3ED089
:104CE000CAB2034602E014F1FF3438D303F8012BB3
:104CF0009D07F8D1032C2BD9CDB245EA05250F2C01
:104D000045EA054516D9A4F110073F0903F120062D
:104D100006EB071603F1100242E9045542E9025579
:104D20001032B242F8D104F00F040137032C03EB28
:104D300007130DD91E462246043A032A46F8045B9F
:104D4000FAD8221F22F003020432134404F00304B1
:104D50002CB1C9B21C4403F8011B9C42FBD1F0BC2E
:104D6000704714460346C5E710B50C46B1F90E105E
:104D700000F06EFA002803DB236D0344236510BDA9
:104D8000A38923F48053A38110BD00BF2DE9F04116
:104D90001646B1F90C201F46D3050C460546B1F95D
:104DA0000E1007D50022022300F026FAB4F90C20D9
:104DB000B4F90E1022F48052A2813B4632462846B6
:104DC000BDE8F04100F0DCB810B50C46B1F90E10AA
:104DD00000F012FAA389421C0EBF23F4805343F45F
:104DE00080532065A38110BDB1F90E1000F062B9A7
:104DF00000000000000000000000000000000000B3
:104E000090F800F06DE9024520F007016FF0000C0A
:104E100010F0070491F820F040F049804FF00004B2
:104E20006FF00700D1E9002391F840F000F108008D
:104E300082FA4CF2A4FA8CF283FA4CF3A2FA8CF3C5
:104E40004BBBD1E9022382FA4CF200F10800A4FA2C
:104E50008CF283FA4CF3A2FA8CF3E3B9D1E9042380
:104E600082FA4CF200F10800A4FA8CF283FA4CF3B7
:104E7000A2FA8CF37BB9D1E9062301F1200182FA71
:104E80004CF200F10800A4FA8CF283FA4CF3A2FA77
:104E90008CF3002BC6D0002A04BF04301A4612BA85
:104EA000B2FA82F2FDE8024500EBD2007047D1E988
:104EB000002304F00305C4F100004FEAC50514F017
:104EC000040F91F840F00CFA05F562EA05021CBFE8
:104ED00063EA050362464FF00004A9E740EA0103D4
:104EE0009B0770B42AD1032A28D90C4603462146D1
:104EF00054F8046BA6F1013525EA060515F0803F4C
:104F000006D1043A032A43F8046B2146EFD89AB13C
:104F10000C781C70013A01333CB16AB111F8014FB1
:104F200003F8014B013A002CF7D12AB11A440021B1
:104F300003F8011B9342FBD170BC70470346E6E7C0
:104F400030B59BB0074D00916FF000440491694665
:104F50000594CDE9024500F093F9009B00221A70F8
:104F60001BB030BD0802FFFF10B4044C13460A46C4
:104F7000014620685DF8044BFFF7E2BFA80100205E
:104F800070B50D46084C114606461A4628460023C1
:104F90002360FCF717FD431C00D070BD2368002B75
:104FA000FBD0336070BD00BF64130020024B13B10F
:104FB000024800F079B8704700000000A9510008CD
:104FC0002DE9F04F354B85B00F4603901868FFF779
:104FD00081FD334B1B68019303F5A4730293B9461B
:104FE000019BD3F848613EB3DDF808A04FF00108FB
:104FF0007468651E0FD4013406EB84040027B9F1F0
:10500000000F20D0D4F800314B451CD0013D6B1C63
:10501000A4F10404F3D1234B73B1D6E90032002A82
:1050200034D1002B32D03046CAF80030FFF75EFD95
:10503000DAF80060002EDBD1184B186805B0BDE827
:10504000F04FFFF749BD73682268013BAB420CBFCC
:1050500075602760002AD9D0D6F88811D6F804B038
:1050600008FA05F30B4208D1904773685B45B7D146
:10507000DAF80030B342C9D0B2E7D6F88C01D4F8E0
:105080008010034207D103989047EEE7B2461E46D0
:10509000002EADD1D0E708469047E6E7D8050020BE
:1050A00018A70008ED4A0008002301461A461846D2
:1050B00001F0DEBD38B5074C0023054608462360E5
:1050C000FCF76AFC431C00D038BD2368002BFBD0E2
:1050D0002B6038BD6413002070B5002948D0054608
:1050E0000C4610B1836B002B48D0626EB4F90C30C3
:1050F000D00740D4990530D521462846FFF748FB14
:10510000E36A064633B1E169284698470028B8BFEC
:105110004FF0FF36A3891A063CD4216B41B104F14C
:105120004003994202D0284603F0BAFF00232363CC
:10513000616C21B1284603F0B3FF00236364FFF7DD
:105140006BFC636E0022DB07A2811FD5A06DFFF709
:10515000BFFCFFF767FC304670BDA06DFFF7BAFCDF
:10516000B4F90C30002BC7D1666E16F0010616D0CC
:105170000026304670BD002BFAD0BDE7FFF720FCBB
:10518000626EB4F90C30D007F5D4B3E7A06DFFF729
:10519000A3FCDBE72169284603F082FFBDE7A06D91
:1051A000FFF79AFC304670BD38B50A4C0A4D641BB7
:1051B000A4100AD004F18043013B05EB8305013CB8
:1051C00055F804399847002CF9D1BDE8384004F06F
:1051D0004DBD00BF680B0020640B0020044A054B46
:1051E0001268506B002808BF1846F030704700BFA7
:1051F000A8010020DC05002070B50D46084C1146C2
:1052000006461A46284600232360FCF725FC431C6B
:1052100000D070BD2368002BFBD0336070BD00BF91
:105220006413002082B049B15AB16BB113780B609E
:105230001278101C18BF012002B0704701A9002A83
:10524000F3D1104602B070476FF00100F4E700BFE1
:1052500070B50D46084C114606461A4628460023EE
:105260002360FCF7D7FB431C00D070BD2368002BE4
:10527000FBD0336070BD00BF64130020000000004D
:105280002DE9F04FDBB00C460A9193460D93079041
:10529000FFF7A4FF03681B931846FFF7B1FDA3892E
:1052A0001A901F0603D52369002B00F057870023AF
:1052B0005E469FED8F7B1493CDE92F331993CDE993
:1052C0001D331F931C93099331AB2E93994633786A
:1052D0008DED167B002B00F0CE82252B344602D1BB
:1052E0001CE0252B03D014F8013F002BF9D1A51B9E
:1052F00085B1DDE92F3201332A44072BC9F800605C
:10530000C9F80450CDE92F327CDC09F10809099B6A
:105310002B4409932378002B00F0AD82002367789B
:105320000B9398468DF89B3004F1010B4FF0FF3A38
:105330002B250BF1010BA7F120035A2B00F2E4837C
:10534000DFE813F0A503E203E203A003E203E203B4
:10535000E2038103E203E203B503B003E203720157
:105360005801E2033B03C600C600C600C600C600E3
:10537000C600C600C600C600E203E203E203E20381
:10538000E203E203E2034003E2037701F002400399
:1053900040034003E203E203E203E203EB02E20321
:1053A000E2038400E203E203E203C202E203CE036B
:1053B000E203E203AC02E203E203E203E203E203FC
:1053C000E203E203E2034003E2037701DA00400371
:1053D00040034003C103DA005B00E2031E03E20363
:1053E000060386002B035B00E203C2025D00290175
:1053F000E203E2033801E2035D0048F020089BF875
:10540000007096E72EAA0A99079802F053FF80B918
:105410000DF1C4097BE72EAA5946504602F04AFF17
:10542000002801F0C7800E9B1BB10E99079803F06E
:1054300037FE0A9B9B8913F0400F099B18BF4FF062
:10544000FF33099309985BB0BDE8F08F48F010086E
:1054500018F0200F00F073850D9C073424F007032B
:10546000D3E9004503F108020D9228F4806300227D
:1054700000218DF89B10BAF1FF3F5AA9089100F066
:10548000A78454EA050123F080085BD1BAF1000F2C
:1054900040F09887002A40F01F8513F001035AAEB0
:1054A0000C9302D0302306F8013D00230E93139392
:1054B000189315930C9B9DF89B205345B8BF5346FA
:1054C0000893002A00F0C880089B01330893C3E0CA
:1054D000A7F1300300221BF8017B02EB820203EBF1
:1054E0004202A7F13003092BF5D90B9223E700BF45
:1054F000000000000000000043469E0640F11782B5
:105500000D9C073424F00704D4E9000104F10802DB
:105510000D9204460D46002871F1000205DA2D2295
:10552000644265EB45058DF89B205AAABAF1FF3F0E
:10553000089200F0E58654EA05014FF0010223F0DD
:105540008008A3D0012A00F04784022A00F0EF82ED
:105550005AA900E03146E20842EA4572E80804F040
:10556000070305461446303354EA050201F8013CAE
:1055700001F1FF36EED118F0010F00F0E882302B78
:1055800000F0E582089A02393023521A06F8013CED
:105590000C920E4689E743469E0640F1A6820D9C7A
:1055A000073424F0070202F10801D2E900450D9109
:1055B00001225DE7B64B199318F0200F00F07481BB
:1055C0000D9C073424F00703D3E9004503F10802DA
:1055D0000D9218F0010F09D054EA050306D03023CC
:1055E0008DF89D7048F002088DF89C3028F4806397
:1055F00002223DE79BF800702A2F0BF1010201F017
:10560000EF82A7F13003092B93464FF0000A3FF6D3
:1056100092AE1BF8017B0AEB8A0A03EB4A0AA7F158
:105620003003092BF5D986E69BF8007048F0040892
:105630007FE60D98002301688DF89B301A468DF89F
:1056400004110123011DCDE90C3108930E929246FD
:1056500013921892159241AE18F002030F9302D0E4
:10566000089B0233089318F08403309C12933FD1B7
:105670000B9B08995D1A002D3ADD102D2F9A29DD1C
:1056800049462046B14610232497079C0A9E04E011
:10569000103D102D01F1080118DD01327D4F103051
:1056A000072ACDE92F20C1E90073F1DD2EAA31468A
:1056B0002046109302F0FEFD00287FF4B4AE103DAA
:1056C000102DDDE92F2031A9109BE6DC249F4E46EA
:1056D0000446894601326F4B2C44072ACDE92F241A
:1056E000C9E9003500F37E859DF89B2009F1080982
:1056F00072B12F9A013201340DF19B000121072A6A
:10570000CDE92F24C9E9000100F3738309F10809E9
:105710000F9B6BB12F9B0133023427A90222072B69
:10572000CDE92F34C9E9001200F36F8309F10809AC
:10573000129B802B00F079820C9BAAEB0305002DB5
:1057400035DD102D2F9A544B26DD49462046B146B3
:105750004FF0100A0A9E1C4604E0103D102D01F186
:10576000080115DD01321030072ACDE92F20C1E9EB
:10577000004AF2DD2EAA3146079802F09BFD002870
:105780007FF451AE103D102DDDE92F2031A9E9DC69
:105790004E4623468946044601322C44072ACDE969
:1057A0002F24C9E9003500F33C8309F1080918F4F6
:1057B000807F40F0DB812F9B0C9AC9F80060013399
:1057C0001444072B3094C9F804202F9300F3A182CE
:1057D00009F1080918F0040F33D00B9B089A9D1AA1
:1057E000002D2EDD102D2F9B21DD1026079FDDF8CB
:1057F000288004E0103D102D09F1080917DD013360
:10580000244A1034072BCDE92F34C9E90026F1DDF5
:105810002EAA4146384602F04DFD00287FF403AE23
:10582000103D102DDDE92F340DF1C409E7DC013303
:10583000184A2C44072BCDE92F34C9E9002500F381
:10584000A583099B0B9A08998A42ACBF9B185B18E9
:105850000993002C40F0258200232F930E9B1BB14F
:105860000E99079803F01CFC0DF1C4095E463378CD
:10587000002B7FF432AD309B002B3FF4DAAD0A9C55
:1058800007982EAA214602F015FDA389D3E500BF93
:105890003CA7000870A7000880A70008AE4B19932A
:1058A00018F0200F7FF48CAE0D9A18F0100F02F153
:1058B000040340F0798318F0400F0D9A00F07083D4
:1058C00014880D93002584E60D9B1E6800258DF835
:1058D0009B501C1D002E00F07584BAF1FF3F00F0B4
:1058E0006186524629463046FFF70AF90E90002895
:1058F00000F09A870E9B9B1B0C93AA4623EAE37346
:105900000D940893CDF838A0CDF84CA0CDF860A048
:10591000CDF854A09DF89B20D3E548F008089BF8EB
:10592000007006E548F010039E063FF5E9AD0D99BD
:10593000DD0601F1040200F151835C060D9940F18E
:105940004A83B1F900400D92E51720462946E2E569
:105950000D9A18F0200F52F8043B0D9240F0458349
:1059600018F0100F40F07E8518F0400F40F03086A0
:1059700018F4007F00F07685099A1A705E4676E783
:105980009BF800706C2F03BF9BF8017048F0200853
:105990000BF1010B48F01008CBE40D996F4B0C682C
:1059A000199347F630020431ADF89C2048F0020309
:1059B0000D910025022278275AE548F080089BF8CF
:1059C0000070B6E40D9C073424F0070494ED007BCE
:1059D00052EC171B22F0004321938DED207A0834FE
:1059E000DDE920014FF0FF325D4B0D948DED167B0C
:1059F00003F094F9002840F0FF824FF0FF32584B3B
:105A0000DDE9200103F06CF9002840F0F582002266
:105A10000023DDE9160103F059F9002840F0E38680
:105A20009DF89B204F4E504B0020032108910E9073
:105A300028F08008472FD8BF1E460C91824613904D
:105A4000189015903DE5079F3846FFF7C7FB436860
:105A50001C931846FFF7D4F91F9004463846FFF709
:105A6000BDFB83681E93002C3FF4C9AC9BF800700B
:105A7000002B3FF45EAC1B78002B3FF45AAC48F48B
:105A8000806856E448F001089BF8007051E49DF8E6
:105A90009B309BF80070002B7FF44BAC20238DF8DB
:105AA0009B3046E48DF89B509BF8007041E40D9BC1
:105AB0009BF800701A680B92002A03F10403C0F2ED
:105AC0005C830D9335E49BF80070682F03BF9BF84F
:105AD000017048F400780BF1010B48F0400828E40D
